:100000000C9435010C9466010C9466010C94660105
:100010000C9466010C9466010C9466010C946601C4
:100020000C9466010C9496060C9496060C94960615
:100030000C9466010C9466010C9466010C946601A4
:100040000C9466010C9466010C9466010C94660194
:100050000C9466010C9466010C9466010C944C0699
:100060000C9466010C9416060C94EC050C94660135
:100070000C9466010C9466010C9466010C94660164
:100080000C9466010C9466010C9466010C94660154
:100090000C9466010C9466010C9466010C94A00605
:1000A0000C9466010C9466010C9466010C94660134
:1000B0000C9466010C9466010C9466010C94660124
:1000C0000C9466010C9466010C9466010C94660114
:1000D0000C9466010C9466010C9466010C94660104
:1000E0000C9466010C94F7020C9473020C940703B1
:1000F0000C94E0010C94FD020C94F4020C94220385
:100100000C94EE010C9427030C94CC010C94260261
:100110000C941D030C9419030C94E2020C94C00778
:100120000C9401030C9490010C94F0020C940F03B6
:100130000C94EC020C94E8020C9415030C940B0341
:100140000C9423030C94BD0100002100240027001F
:100150002A002D00300033000101000004010701D6
:100160000A0100002200250028002B002E0031008B
:10017000340002010000050108010B01000020000D
:100180002300260029002C002F003200000100006F
:10019000030106010901050505050705080808080A
:1001A000020202020A0A080804040404010101010F
:1001B000010101010303030303030303040707070A
:1001C0000C0C0C0C0C0C0C0C0202020206060606AF
:1001D000060606060B0B0B0B0B0B0B0B010210207C
:1001E000200808102040102040800201020108046D
:1001F0000201010204081020408080402010080401
:100200000201800402018040201008040201080459
:10021000020101020408102040800102040810209D
:10022000408000000A0B02090C0D0E0807030401B0
:1002300000000000000000000000000000000000BE
:10024000000000000000000000000000000012118B
:10025000100000000000000000000000000000008E
:100260000000000000000000C00711241FBECFEFF7
:10027000D1E2DEBFCDBF00E00CBF12E0A0E0B2E0F3
:10028000E8E1FEE100E00BBF02C007900D92A63648
:10029000B107D9F723E0A6E6B2E001C01D92A73E60
:1002A000B207E1F711E0C5E3D1E000E006C0219715
:1002B0000109802FFE010E94C90DC433D10780E0DF
:1002C0000807A9F70E94ED070C940A0F0C94000090
:1002D000E6E4F3E0A089B18982E08C93A485B5853A
:1002E0001C92A685B7858FEC8C93108EA489B58956
:1002F00086E08C93A289B3898C9180618C93A289CA
:10030000B3898C9188608C93A289B3898C91806821
:100310008C930288F389E02D80818F7D80830895FE
:10032000AF92BF92CF92DF92EF92FF920F931F9303
:10033000CF93DF936C017B018B01040F151FEB0141
:100340005E01AE18BF08C017D10759F06991D601F8
:10035000ED91FC910190F081E02DC6011995892B5A
:1003600079F7C501DF91CF911F910F91FF90EF9029
:10037000DF90CF90BF90AF900895FC01538D448DD6
:10038000252F30E0842F90E0821B930B541710F040
:10039000CF96089501970895FC01918D828D98174D
:1003A00061F0A28DAE0FBF2FB11D5D968C91928D25
:1003B0009F5F9F73928F90E008958FEF9FEF089556
:1003C000FC01918D828D981731F0828DE80FF11D1F
:1003D000858D90E008958FEF9FEF0895FC01918D3A
:1003E000228D892F90E0805C9F4F821B91098F7333
:1003F0009927089586E493E00E94EE0121E0892B7D
:1004000009F420E0822F0895FC01A48DA80FB92FD4
:10041000B11DA35ABF4F2C91848D90E001968F732C
:100420009927848FA689B7892C93A089B1898C914B
:10043000837080648C93938D848D981306C002889A
:10044000F389E02D80818F7D80830895EF92FF9264
:100450000F931F93CF93DF93EC0181E0888F9B8DE7
:100460008C8D98131AC0E889F989808185FF15C0A1
:100470009FB7F894EE89FF896083E889F9898081C4
:100480008370806480839FBF81E090E0DF91CF9193
:100490001F910F91FF90EF900895F62E0B8D10E0B5
:1004A0000F5F1F4F0F731127E02E8C8D8E110CC024
:1004B0000FB607FCFACFE889F989808185FFF5CF6F
:1004C000CE010E940402F1CFEB8DEC0FFD2FF11D48
:1004D000E35AFF4FF0829FB7F8940B8FEA89FB89AC
:1004E00080818062CFCFCF93DF93EC01888D88230A
:1004F000B9F0AA89BB89E889F9898C9185FD03C087
:10050000808186FD0DC00FB607FCF7CF8C9185FF6B
:10051000F2CF808185FFEDCFCE010E940402E9CFAA
:10052000DF91CF91089580E090E0892B29F00E941F
:10053000FA0181110E94000080E090E0892B49F0CF
:1005400080E090E0892B29F00E94000081110E9438
:10055000000080E090E0892B49F080E090E0892B5A
:1005600029F00E94000081110E94000080E090E0CC
:10057000892B49F080E090E0892B29F00E9400004F
:1005800081110C94000008958150823108F05AC006
:10059000E82FF0E08827E053FD4F8F4F0C94C90DF2
:1005A000F002F402E202E802EC022203F702FD028A
:1005B000010307030B030F031503190322031D0394
:1005C00023032703809180008F7780938000089514
:1005D000809180008F7DF9CF80918000877FF5CF5B
:1005E00084B58F7784BD089584B58F7DFBCF8091CE
:1005F000B0008F778093B00008958091B0008F7D18
:10060000F9CF809190008F7780939000089580912A
:1006100090008F7DF9CF80919000877FF5CF8091FA
:10062000A0008F778093A00008958091A0008F7D17
:10063000F9CF8091A000877FF5CF809120018F773F
:10064000809320010895809120018F7DF9CF8091C2
:100650002001877FF5CFCF93DF93282F30E0F9017A
:10066000EE5DFD4F8491F901E452FE4FD491F90102
:10067000EA56FE4FC491CC23A1F081110E94C4021E
:10068000EC2FF0E0EE0FFF1FE458FE4FA591B49160
:10069000EC91ED2381E090E009F480E0DF91CF91CF
:1006A000089580E090E0FACF1F93CF93DF93282F37
:1006B00030E0F901EE5DFD4F8491F901E452FE4F07
:1006C000D491F901EA56FE4FC491CC23A9F0162F1C
:1006D00081110E94C402EC2FF0E0EE0FFF1FEE59D3
:1006E000FE4FA591B4918FB7F894EC91111108C009
:1006F000D095DE23DC938FBFDF91CF911F910895BA
:10070000DE2BF8CFCF93DF9390E0FC01E452FE4F55
:1007100024918A569E4FFC0184918823C9F090E071
:10072000880F991FFC01E85BFE4FA591B491FC0175
:10073000EE59FE4FC591D49161110DC09FB7F89449
:100740008C91209582238C938881282328839FBFB6
:10075000DF91CF910895623051F49FB7F8943C91A6
:10076000822F809583238C93E8812E2BEFCF8FB738
:10077000F894EC912E2B2C938FBFEACF2FB7F894DF
:100780006091DE027091DF028091E0029091E102BF
:100790002FBF089520918D02260F3327331F21325A
:1007A0003105ECF42091B102FC0190E080E02430AE
:1007B00069F082E00895A0918D022191AC01435926
:1007C0005D4FA40FB52FB11D2C930196861798F39A
:1007D00080918D02680F60938D0280E0089581E022
:1007E000089508958FEF9FEF08958FEF9FEF08957D
:1007F0008091660290E09195819591090895CF933B
:10080000DF93CB01EA01642F0E94CA03CE01DF917E
:10081000CF910895CF93DF931F92CDB7DEB7698351
:1008200061E0CE0101960E94CA0381E090E00F9042
:10083000DF91CF91089590E080E00895CF92DF920C
:10084000EF92FF920F931F93CF93DF93EC01888178
:100850009E81992391F00E942B0301E0892B91F056
:1008600000E010E00D83812FDF91CF911F910F9158
:10087000FF90EF90DF90CF9008950E942B0301E04E
:10088000019771F78D81811110C00E94BE03C9804C
:10089000DA80EB80FC806C197D098E099F0911E0DC
:1008A0006B3071058105910508F410E00E94BE03CC
:1008B00069837A838B839C83D5CFFC01828193816A
:1008C00061E0911101C060E00C945403FC0182814D
:1008D000938160E0911101C061E00C9454030F9387
:1008E0001F93CF93DF938C01D0E0C0E0D801ED914E
:1008F000FC91EC0FFD1F60E080810E945403219663
:10090000C430D10599F7DF91CF911F910F910895D0
:10091000FC0101900020E9F73197AF01481B590B0A
:10092000BC0186E493E00C9490018F929F92AF9269
:10093000BF920F931F93CF93DF93CDB7DEB7A197ED
:100940000FB6F894DEBF0FBECDBF19A2423008F437
:100950004AE08E010F5D1F4F842E912CB12CA12CEB
:10096000A50194010E94A70DE62FB901CA01EA3042
:10097000F4F4E05DD801EE938D01232B242B252B7D
:1009800079F790E080E0109719F0CD010E9488047B
:10099000A1960FB6F894DEBF0FBECDBFDF91CF9109
:1009A0001F910F91BF90AF909F908F900895E95C39
:1009B000E1CF9F92AF92BF92CF92DF92EF92FF92E0
:1009C0000F931F93CF93DF93CDB7DEB70F851889B1
:1009D00084E090E00E94E50D6C018989D6018C933A
:1009E0008A8911968C9311978B8912968C93129702
:1009F0008C8913968C9376015601B4E0AB0EB11C32
:100A000061E0F70181917F010E948203F701319734
:100A100060E080810E945403EA14FB0489F788E0B7
:100A200090E00E94E50DD80111969C938E93189644
:100A30001C92F801148215821682178282E090E0DF
:100A4000938382835E01F7E1AF0EB11CF12CE12CA0
:100A500099249394D801ED91FC91EE0DFF1DD18264
:100A6000C082D5018C91B2E0AB0EB11C828393821F
:100A700061E00E948203F801808191818E0D9F1DAB
:100A80000E945D04D8018D919C918E0D9F1D0E9446
:100A90006F04F801808191818E0D9F1D0E94660474
:100AA000F4E0EF0EF11C88E0E816F10499F6DF910E
:100AB000CF911F910F91FF90EF90DF90CF90BF905B
:100AC000AF909F9008951F93CF93DF9385ED809310
:100AD000BC008091690290916A02A0916B02B09172
:100AE0006C020796A11DB11D23E0B695A7959795B9
:100AF00087952A95D1F72091BC0024FD03C0109260
:100B0000B10252C04091690250916A0260916B0239
:100B100070916C02452B462B472B69F30097A1057A
:100B2000B10541F025E32A95F1F700000197A109ED
:100B3000B109E1CF80916802C1E0C09367028823C8
:100B400099F1D091B8001091BA008091BC008A7BD5
:100B50008093BC0060E084E10E94540360E085E182
:100B60000E9454031092B102C093B3021092B202D9
:100B700061E084E10E94540361E085E10E94540336
:100B80008091B9008E7F8093B9008091B9008D7FEC
:100B90008093B90088E48093B80085E48093BC001A
:100BA0001093BA00D093B800DF91CF911F910895B0
:100BB0001F93CF93DF93EC01162F0E94B30B1817EE
:100BC00039F0612FCE01DF91CF911F910C94BB0BB7
:100BD000DF91CF911F9108951F920F920FB60F9240
:100BE00011240BB60F922F933F934F935F936F9304
:100BF0007F938F939F93AF93BF93EF93FF9386E47D
:100C000093E00E940402FF91EF91BF91AF919F91F9
:100C10008F917F916F915F914F913F912F910F90A5
:100C20000BBE0F900FBE0F901F9018951F920F9242
:100C30000FB60F9211240BB60F922F938F939F93A1
:100C4000EF93FF93E0915603F09157038081E09179
:100C50005C03F0915D0382FD1DC0908180915F0374
:100C60008F5F8F7320916003821741F0E0915F03E3
:100C7000F0E0EA5BFC4F958F80935F03FF91EF916B
:100C80009F918F912F910F900BBE0F900FBE0F90E1
:100C90001F9018958081F2CF1F920F920FB60F927E
:100CA00011242F933F938F939F93AF93BF93809182
:100CB000DE029091DF02A091E002B091E10230915A
:100CC000DD0223E0230F2D3758F50196A11DB11D3C
:100CD0002093DD028093DE029093DF02A093E00276
:100CE000B093E1028091D9029091DA02A091DB02E7
:100CF000B091DC020196A11DB11D8093D9029093A1
:100D0000DA02A093DB02B093DC02BF91AF919F9116
:100D10008F913F912F910F900FBE0F901F901895BC
:100D200026E8230F0296A11DB11DD2CF1F920F926C
:100D30000FB60F9211240F900FBE0F901F901895B1
:100D40001F920F920FB60F9211240BB60F922F9392
:100D50003F934F935F936F937F938F939F93AF9343
:100D6000BF93EF93FF938091B900887F803609F499
:100D70004DC008F040C0883209F4A7C028F5803182
:100D800009F49BC0C8F4882309F4F7C0883009F43B
:100D900094C0FF91EF91BF91AF919F918F917F91FF
:100DA0006F915F914F913F912F910F900BBE0F90DC
:100DB0000FBE0F901F901895883109F486C08032BD
:100DC00041F78093B00214C0803409F49BC040F412
:100DD0008033B9F38833E9F68093B00285ECAEC076
:100DE000803509F483C0883509F494C0883489F6C5
:100DF0000E946305CECF883909F48AC038F5883758
:100E000029F050F4883611F0803719F683E080938A
:100E1000B1021092AF0255C0883809F479C0803908
:100E200019F0803809F0B5CF8091AF02803208F018
:100E30006FC0E091AF0281E08E0F8093AF0280918E
:100E4000BB00F0E0E157FD4F80833BC0803B39F0B1
:100E5000D0F4803A09F477C0883A09F09ACF84E058
:100E60008093B10210928E0210928D02F0E0E0E0C9
:100E7000199580918D0281110FC081E080938D02C0
:100E800010926D0209C0803C09F4A8CF883C09F497
:100E9000A5CF883B09F07DCFE0918E0281E08E0FD7
:100EA00080938E02F0E0E359FD4F80818093BB0078
:100EB00090918E0280918D0229C08091D6028093FC
:100EC000BB0085EC8093BC0064CF9091D5028091EB
:100ED000D402981758F5E091D50281E08E0F8093E7
:100EE000D502F0E0EC54FD4F8081E9CFE091D502CE
:100EF00081E08E0F8093D5028091BB00F0E0EC542E
:100F0000FD4F80839091D5028091D4029817C8F24A
:100F100085E8D8CFE091D50281E08E0F8093D5028D
:100F20008091BB00F0E0EC54FD4F80838091B302D0
:100F300081115ECF81E08093B20284EA8093BC008D
:100F40001092B10226CF85EC8093BC001092B102C2
:100F50008091AF02803230F4E091AF02F0E0E157CF
:100F6000FD4F10826091AF0270E08FE892E0F0E0F8
:100F7000E0E019951092AF020CCF1092B00238CF7A
:100F8000E6E4F3E01382128288EE93E0A0E0B0E0A2
:100F900084839583A683B7838AE092E091838083DC
:100FA00085EC90E09587848784EC90E0978786872E
:100FB00080EC90E0918B808B81EC90E0938B828B26
:100FC00082EC90E0958B848B86EC90E0978B868BFF
:100FD000118E128E138E148E0895CF93DF93CDB79A
:100FE000DEB72C970FB6F894DEBF0FBECDBF789456
:100FF00084B5826084BD84B5816084BD85B582601E
:1010000085BD85B5816085BD80916E0081608093CE
:101010006E00109281008091810082608093810037
:101020008091810081608093810080918000816047
:10103000809380008091B10084608093B1008091A2
:10104000B00081608093B0008091910082608093B5
:101050009100809191008160809391008091900037
:101060008160809390008091A10082608093A100B4
:101070008091A10081608093A1008091A000816097
:101080008093A00080912101826080932101809152
:1010900021018160809321018091200181608093F2
:1010A000200180917A00846080937A0080917A0098
:1010B000826080937A0080917A00816080937A00C8
:1010C00080917A00806880937A001092C1000E941B
:1010D000680188E192E00E94880490E080E00E942C
:1010E000B30B90E09093F2028093F10282E090E0E3
:1010F0000E94B30B90E090930D0380930C0384E067
:1011000090E00E94B30B90E0909328038093270314
:1011100080E090E0A0E0BFE38093F3029093F402BC
:10112000A093F502B093F60280E090E0A0E8BFE360
:1011300080930E0390930F03A0931003B0931103B9
:1011400080E090E0A0E0B0E48093290390932A032C
:10115000A0932B03B0932C0386E38093000387E3D3
:1011600080931B0388E3809336031F9283E08F9361
:101170001F9202E00F930F9311E01F9389E18F9369
:1011800088E18F9387E18F9386E18F9387EF92E0D9
:101190009F938F930E94D9041F9285E08F931F9293
:1011A00084E08F930F931F938FE18F938EE18F9342
:1011B0008DE18F938CE18F9382E193E09F938F93E6
:1011C0000E94D9041F9287E08F931F9286E08F932D
:1011D0000F931F9385E28F9384E28F9383E28F9323
:1011E00082E28F938DE293E09F938F930E94D904C4
:1011F0008BE080930103109202031092030310927C
:1012000004031092050310930703109206030FB610
:10121000F894DEBF0FBECDBF62E00E9482038CE077
:1012200080931C0310921D0310921E0310921F0343
:1012300010922003109322031092210362E00E9477
:1012400082038DE0809337031092380310923903A4
:1012500010923A0310923B0310933D0310923C030B
:1012600062E00E94820385E38093E2021092E3022F
:101270001092E4021092E5021092E6021093E80246
:101280001092E70262E00E9482030E9468018CE3F0
:1012900092E00E948804AE014F5F5F4F5C874B87EE
:1012A0003AE0432E512C612C712C01EF12E06801C1
:1012B000812C912C5401D6016D917C9190E080E0BD
:1012C0000E946A0CF60122813381448155810E947B
:1012D000210D9B01AC01C501B4010E94CA0B4B0159
:1012E0005C01FBE1CF0ED11C22E433E02C153D055F
:1012F00011F78092420390924303A0924403B0926C
:101300004503D8018D909C901197B12CA12C189673
:10131000EC90E1E0F0E0EC0FFD1FEE0DF11D7F0120
:101320004B855C854E155F0509F073C10E94BE03B5
:10133000D8011A968D909D90AD90BC901D9768191C
:1013400079098A099B09663071058105910508F4C0
:1013500069C01E968C91B4E08B9FC0011124F801E6
:1013600026813781820F931F0E945D04D8011E964B
:101370008C911E9790E0019618966D917C910E9439
:10138000930DF80186879927E1E0F0E0EC0FFD1F4F
:10139000E80FF91F3080880F991F880F991FD80117
:1013A0001696ED90FC90E80EF91EC7010E945D04B0
:1013B000C7010E946F04B7E0B31548F4D701ED915F
:1013C000FC9161E083810E945403B8EF3B0EE3E09F
:1013D000E31548F4D701ED91FC9161E082810E9410
:1013E0005403BCEF3B0EE1E0E31548F4D701ED9167
:1013F000FC9161E081810E9454033A943A94332035
:1014000039F0D701ED91FC9161E080810E94540395
:10141000C7010E9466040E94BE03F80162877387B9
:1014200084879587C80140960E941E04882399F0FE
:10143000D8018D919C911197009769F001978D9338
:101440009C930E94BE036093ED027093EE02809322
:10145000EF029093F002F8018785863308F08653F7
:1014600020917B00982F9870277F922B90937B0080
:101470008770806480937C0080917A008064809380
:101480007A0080917A0086FDFCCF9091780080915F
:101490007900892798278927C39764F50E94BE039E
:1014A000D80157968D909D90AD90BC905A97681931
:1014B00079098A099B096436710581059105D0F087
:1014C0008D919C91119783369105A0F401968D938F
:1014D0009C930E94BE03F801678B708F818F928F5F
:1014E0000E94BE036093ED027093EE028093EF02C0
:1014F0009093F002055E1F4FC016D10609F001CF90
:101500000E94BE030091E9021091EA022091EB02D1
:101510003091EC02601B710B820B930B693E7340A0
:101520008105910518F1C0904203D0904303E090EB
:101530004403F0904503A7019601C701B6010E943C
:101540008E0D882309F47DC086E592E00E94880410
:1015500082E692E00E9488040E94BE036093E90242
:101560007093EA028093EB029093EC020E94BE0318
:101570000091ED021091EE022091EF023091F00205
:10158000601B710B820B930B61367A4E81059105BE
:10159000E0F06091F10290E080E00E94D805609157
:1015A0000C0382E090E00E94D8056091270384E05C
:1015B00090E00E94D8050E94BE036093ED027093F4
:1015C000EE028093EF029093F00282EE92E00E948E
:1015D0001E048823D9F01092F2021092F1021092A8
:1015E0000D0310920C03109228031092270360E061
:1015F00090E080E00E94D80560E082E090E00E94E8
:10160000D80560E084E090E00E94D8050E94930233
:101610004CCEC501B401A30192010E94A70DD701D0
:101620006E937D01A5019401261B370B480B590BC6
:10163000CA01B901A30192010E94A70D49015A01F3
:101640006FCE46015701E894B7F82FEF3FEF4FE711
:101650005FE7C501B4010E948E0D81110DC02FEF0F
:101660003FEF4FE75FE7C501B4010E94360C181643
:101670001CF48AE592E06ACF2FEF3FEF4FE75FE47B
:10168000C701B6010E941C0D18161CF48EE592E0ED
:101690005DCF2FEF3FEF4FE75FECC701B6010E9430
:1016A000360C87FDF3CF20E030E0A901C701B60179
:1016B0000E94360C87FF09C06DE286E493E00E9429
:1016C0002602F7FAF094F7F8F0942AE037ED43EAAF
:1016D0005BE3C701B6010E94CA0B4B015C010E948B
:1016E0003B0C6B017C010E946A0C9B01AC01C501A3
:1016F000B4010E94C90B4B015C014AE0C701B6016D
:101700000E9495046EE286E493E00E94260220E0A7
:1017100030E040E251E4C501B4010E94210D4B01CB
:101720005C010E943B0C6B01F12CE12C4AE0C701EB
:10173000B6010E949504C701B6010E946A0C9B0184
:10174000AC01C501B4010E94C90B20E030E040E2C9
:1017500051E40E94210D0E943B0C90E080E04AE0A1
:101760000E949504F5CEF999FECF92BD81BDF89AFD
:10177000992780B50895262FF999FECF1FBA92BDFB
:1017800081BD20BD0FB6F894FA9AF99A0FBE019662
:1017900008955058BB27AA270E94E10B0C94E20C35
:1017A0000E94D40C38F00E94DB0C20F039F49F3FEB
:1017B00019F426F40C94D10C0EF4E095E7FB0C948C
:1017C000CB0CE92F0E94F30C58F3BA17620773078A
:1017D0008407950720F079F4A6F50C94150D0EF406
:1017E000E0950B2EBA2FA02D0B01B90190010C0131
:1017F000CA01A0011124FF27591B99F0593F50F449
:10180000503E68F11A16F040A22F232F342F4427A0
:10181000585FF3CF469537952795A795F040539598
:10182000C9F77EF41F16BA0B620B730B840BBAF068
:101830009150A1F0FF0FBB1F661F771F881FC2F7D3
:101840000EC0BA0F621F731F841F48F487957795E7
:101850006795B795F7959E3F08F0B0CF9395880FA1
:1018600008F09927EE0F9795879508950E94A70C89
:1018700008F481E008950E94FB0C88F09F5798F0CF
:10188000B92F9927B751B0F0E1F0660F771F881F85
:10189000991F1AF0BA95C9F714C0B13091F00E949F
:1018A000150DB1E008950C94150D672F782F88273A
:1018B000B85F39F0B93FCCF3869577956795B395C6
:1018C000D9F73EF490958095709561957F4F8F4F35
:1018D0009F4F0895E89409C097FB3EF4909580953A
:1018E000709561957F4F8F4F9F4F9923A9F0F92FE6
:1018F00096E9BB279395F695879577956795B79564
:10190000F111F8CFFAF4BB0F11F460FF1BC06F5F49
:101910007F4F8F4F9F4F16C0882311F096E911C05B
:10192000772321F09EE8872F762F05C0662371F07C
:1019300096E8862F70E060E02AF09A95660F771F90
:10194000881FDAF7880F9695879597F90895990F6C
:101950000008550FAA0BE0E8FEEF16161706E80779
:10196000F907C0F012161306E407F50798F0621B9A
:10197000730B840B950B39F40A2661F0232B242B6F
:10198000252B21F408950A2609F4A140A6958FEF8E
:10199000811D811D089597F99F6780E870E060E0E0
:1019A00008959FEF80EC089500240A9416161706F8
:1019B00018060906089500240A9412161306140640
:1019C00005060895092E0394000C11F4882352F0A3
:1019D000BB0F40F4BF2B11F460FF04C06F5F7F4F5B
:1019E0008F4F9F4F089557FD9058440F551F59F042
:1019F0005F3F71F04795880F97FB991F61F09F3FFC
:101A000079F087950895121613061406551FF2CF24
:101A10004695F1DF08C0161617061806991FF1CF74
:101A200086957105610508940895E894BB2766279B
:101A30007727CB0197F908950E94A70C08F48FEF40
:101A400008950E94340D0C94E20C0E94D40C38F0DE
:101A50000E94DB0C20F0952311F00C94CB0C0C941D
:101A6000D10C11240C94160D0E94F30C70F3959F69
:101A7000C1F3950F50E0551F629FF001729FBB2785
:101A8000F00DB11D639FAA27F00DB11DAA1F649F21
:101A90006627B00DA11D661F829F2227B00DA11DD4
:101AA000621F739FB00DA11D621F839FA00D611D5A
:101AB000221F749F3327A00D611D231F849F600D7B
:101AC000211D822F762F6A2F11249F5750409AF0A4
:101AD000F1F088234AF0EE0FFF1FBB1F661F771F30
:101AE000881F91505040A9F79E3F510580F00C94FB
:101AF000CB0C0C94160D5F3FE4F3983ED4F386951F
:101B000077956795B795F795E7959F5FC1F7FE2B9A
:101B1000880F911D9695879597F908950E94A70CB7
:101B2000880B990B089597FB072E16F4009407D0A5
:101B300077FD09D00E94D10D07FC05D03EF49095A9
:101B400081959F4F0895709561957F4F0895A1E20B
:101B50001A2EAA1BBB1BFD010DC0AA1FBB1FEE1F27
:101B6000FF1FA217B307E407F50720F0A21BB30B72
:101B7000E40BF50B661F771F881F991F1A9469F7EE
:101B800060957095809590959B01AC01BD01CF014A
:101B90000895EE0FFF1F881F8BBF0790F691E02D71
:101BA0001994AA1BBB1B51E107C0AA1FBB1FA61794
:101BB000B70710F0A61BB70B881F991F5A95A9F7F6
:101BC00080959095BC01CD0108950F931F93CF93FD
:101BD000DF938230910510F482E090E0E091E5031C
:101BE000F091E60330E020E0B0E0A0E0309799F417
:101BF0002115310509F44AC0281B390B2430310561
:101C0000D8F58A819B816115710589F1FB01938368
:101C10008283FE0111C040815181028113814817E6
:101C20005907E0F04817590799F4109761F0129698
:101C30000C93129713961C933296CF01DF91CF919C
:101C40001F910F9108950093E5031093E603F4CFDD
:101C50002115310551F04217530738F0A901DB0176
:101C60009A01BD01DF01F801C1CFEF01F9CF9093D7
:101C7000E6038093E503CDCFFE01E20FF31F8193CE
:101C800091932250310939832883D7CF2091E303E0
:101C90003091E403232B41F420910202309103029E
:101CA0003093E4032093E30320910002309101027A
:101CB0002115310541F42DB73EB7409104025091F2
:101CC0000502241B350BE091E303F091E403E217D6
:101CD000F307A0F42E1B3F0B2817390778F0AC014F
:101CE0004E5F5F4F2417350748F04E0F5F1F50932C
:101CF000E4034093E303819391939FCFF0E0E0E00E
:101D00009CCFCF93DF930097E9F0FC0132971382C9
:101D10001282A091E503B091E603ED0130E020E0EE
:101D20001097A1F420813181820F931F2091E3034A
:101D30003091E4032817390709F061C0F093E403F8
:101D4000E093E303DF91CF910895EA01CE17DF0717
:101D5000E8F54A815B819E0141155105B1F7E90122
:101D6000FB83EA8349915991C40FD51FEC17FD07F6
:101D700061F4808191810296840F951FE901998316
:101D80008883828193819B838A83F0E0E0E01296CE
:101D90008D919C9113970097B9F52D913C911197D6
:101DA000CD010296820F931F2091E3033091E4034B
:101DB0002817390739F6309751F51092E60310923B
:101DC000E503B093E403A093E303BCCFD383C283C2
:101DD00040815181840F951FC817D90761F44E5F68
:101DE0005F4F88819981480F591F518340838A81B1
:101DF0009B81938382832115310509F0B0CFF09345
:101E0000E603E093E5039ECFFD01DC01C0CF138222
:081E10001282D7CFF894FFCF36
:101E18000000E70380000000000026029001BD01D9
:101E28007302EE01CC01E001426C696E64657920B1
:101E380070726F6A6563742C20696E697469616C6D
:101E4800697A6174696F6E2E2E2E0A00496E697464
:101E580069616C697A6174696F6E2066696E69730D
:101E68006865642E0A006E616E00696E66006F76A2
:061E780066000D0A0000E7
:00000001FF
